{
    "contractName": "Casino",
    "abi": [
        {
            "inputs": [],
            "stateMutability": "nonpayable",
            "type": "constructor"
        },
        {
            "anonymous": false,
            "inputs": [
                {
                    "indexed": true,
                    "internalType": "address",
                    "name": "oldOwner",
                    "type": "address"
                },
                {
                    "indexed": true,
                    "internalType": "address",
                    "name": "newOwner",
                    "type": "address"
                }
            ],
            "name": "OwnerSet",
            "type": "event"
        },
        {
            "inputs": [],
            "name": "bet",
            "outputs": [],
            "stateMutability": "payable",
            "type": "function"
        },
        {
            "inputs": [
                {
                    "internalType": "uint16",
                    "name": "_newLimit",
                    "type": "uint16"
                }
            ],
            "name": "changeLimit",
            "outputs": [],
            "stateMutability": "nonpayable",
            "type": "function"
        },
        {
            "inputs": [
                {
                    "internalType": "address",
                    "name": "_newOwner",
                    "type": "address"
                }
            ],
            "name": "changeOwner",
            "outputs": [],
            "stateMutability": "nonpayable",
            "type": "function"
        },
        {
            "inputs": [],
            "name": "getLimit",
            "outputs": [
                {
                    "internalType": "uint16",
                    "name": "",
                    "type": "uint16"
                }
            ],
            "stateMutability": "view",
            "type": "function"
        },
        {
            "inputs": [],
            "name": "getNumberofGamblers",
            "outputs": [
                {
                    "internalType": "uint256",
                    "name": "",
                    "type": "uint256"
                }
            ],
            "stateMutability": "view",
            "type": "function"
        },
        {
            "inputs": [],
            "name": "getOwner",
            "outputs": [
                {
                    "internalType": "address",
                    "name": "",
                    "type": "address"
                }
            ],
            "stateMutability": "view",
            "type": "function"
        },
        {
            "inputs": [],
            "name": "getTime",
            "outputs": [
                {
                    "internalType": "uint256",
                    "name": "",
                    "type": "uint256"
                }
            ],
            "stateMutability": "nonpayable",
            "type": "function"
        },
        {
            "inputs": [],
            "name": "getTotalSum",
            "outputs": [
                {
                    "internalType": "uint256",
                    "name": "",
                    "type": "uint256"
                }
            ],
            "stateMutability": "view",
            "type": "function"
        },
        {
            "inputs": [],
            "name": "getmyBalance",
            "outputs": [
                {
                    "internalType": "uint256",
                    "name": "",
                    "type": "uint256"
                }
            ],
            "stateMutability": "view",
            "type": "function"
        }
    ],
    "bytecode": "608060405234801561001057600080fd5b50600280546001600160a01b0319163317908190556040516001600160a01b0391909116906000907f342827c97908e5e2f71151c08502a66d44b6f758e3ac2f1de95f02eb95f0a735908290a360006001819055805461ffff1916601e17905561048a8061007f6000396000f3fe6080604052600436106100865760003560e01c80632e5c1d10116100595780632e5c1d10146100ff578063557ed1ba14610114578063893d20e814610129578063a6f9dae11461015a578063b295a00e1461018d57610086565b806303769d821461008b57806311610c25146100b2578063151f8502146100bc57806326449fd0146100d1575b600080fd5b34801561009757600080fd5b506100a06101b9565b60408051918252519081900360200190f35b6100ba6101bf565b005b3480156100c857600080fd5b506100a06102db565b3480156100dd57600080fd5b506100ba600480360360208110156100f457600080fd5b503561ffff166102e1565b34801561010b57600080fd5b506100a061034f565b34801561012057600080fd5b506100a0610362565b34801561013557600080fd5b5061013e610366565b604080516001600160a01b039092168252519081900360200190f35b34801561016657600080fd5b506100ba6004803603602081101561017d57600080fd5b50356001600160a01b0316610375565b34801561019957600080fd5b506101a2610427565b6040805161ffff9092168252519081900360200190f35b60015490565b60005460045461ffff9091161161021d576040805162461bcd60e51b815260206004820152601760248201527f47616d626c657273206c696d6974207265616368656421000000000000000000604482015290519081900360640190fd5b33600081815260036020526040902054349015610257576001600160a01b03821660009081526003602052604090208054820190556102b5565b6001600160a01b03821660008181526003602052604081208054840190556004805460018101825591527f8a35acfbc15ff81a39ae7d344fd709f28e8600b4aa8c65c6b64bfe7fe36bd19b0180546001600160a01b03191690911790555b600180548201905560005460045461ffff90911614156102d7576102d7610431565b5050565b60045490565b6002546001600160a01b03163314610337576040805162461bcd60e51b815260206004820152601460248201527343616c6c6572206973206e6f74206f776e65722160601b604482015290519081900360640190fd5b6000805461ffff191661ffff92909216919091179055565b3360009081526003602052604090205490565b4290565b6002546001600160a01b031690565b6002546001600160a01b031633146103cb576040805162461bcd60e51b815260206004820152601460248201527343616c6c6572206973206e6f74206f776e65722160601b604482015290519081900360640190fd5b6002546040516001600160a01b038084169216907f342827c97908e5e2f71151c08502a66d44b6f758e3ac2f1de95f02eb95f0a73590600090a3600280546001600160a01b0319166001600160a01b0392909216919091179055565b60005461ffff1690565b600242600154018161043f57fe5b06610452576005805460ff191660011790555b56fea2646970667358221220f38fec6bebfb81ee9e3c72134506b269fe93428d3c6c21777215c5f02ca8851d64736f6c63430007000033",
    "sourcePath": "c:/Users/Elia/Documents/ФМИ/3 курс/5 семестър/BLOCKCHAIN/test.sol",
    "compiler": {
        "name": "solc",
        "version": "0.7.0+commit.9e61f92b"
    },
    "functionHashes": {
        "bet()": "11610c25",
        "changeLimit(uint16)": "26449fd0",
        "changeOwner(address)": "a6f9dae1",
        "getLimit()": "b295a00e",
        "getNumberofGamblers()": "151f8502",
        "getOwner()": "893d20e8",
        "getTime()": "557ed1ba",
        "getTotalSum()": "03769d82",
        "getmyBalance()": "2e5c1d10"
    },
    "gasEstimates": {
        "creation": {
            "codeDepositCost": "232400",
            "executionCost": "48503",
            "totalCost": "280903"
        },
        "external": {
            "bet()": "109391",
            "changeLimit(uint16)": "21944",
            "changeOwner(address)": "24333",
            "getLimit()": "1101",
            "getNumberofGamblers()": "1043",
            "getOwner()": "1081",
            "getTime()": "219",
            "getTotalSum()": "999",
            "getmyBalance()": "1066"
        },
        "internal": {
            "executeGambleReturns()": "21680",
            "resetState()": "infinite"
        }
    }
}